:020000040800F2
:100000009846002081020008D3550008DF3F000811
:10001000D155000845090008396B000800000000B0
:100020000000000000000000000000002959000846
:10003000070A000800000000735800082B59000848
:100040009B0200089B0200089B0200089B0200081C
:100050009B0200089B0200089B0200089B0200080C
:100060009B0200089B0200089B0200084909000847
:10007000550900089B0200089B0200089B0200082B
:100080009B02000800000000CD0700089B0200084A
:100090009B0200089B0200089B0200089B020008CC
:1000A000A9590008DD590008D1590008C5590008B0
:1000B0009B0200089B0200089B0200089B020008AC
:1000C0009B0200089B0200089B0200089B0200089C
:1000D0009B0200082D6B00089B0200089B02000891
:1000E0009B0200089B0200089B0200089B0200087C
:1000F0009B0200089B0200089B0200080000000011
:10010000000000009B020008000000009B020008A5
:100110009B020008000000009B0200089B020008F0
:100120009B0200089B0200089B0200089B0200083B
:100130009B02000800000000000000009B02000875
:100140009B0200089B020008000000000000000065
:10015000000000000000000000000000000000009F
:100160000000000000000000000000009B020008EA
:100170009B020008000000000000000000000000DA
:10018000000000009B0200080000000000000000CA
:10019000000000000000000000000000000000005F
:1001A00000000000000000009B0200089B02000805
:1001B000ED3F0008E13F00089B020008000000003E
:1001C000000000009B02000800000000000000008A
:1001D0009B0200089B02000800F002F800F041F8C2
:1001E0000AA090E8000C82448344AAF10107DA4592
:1001F00001D100F036F8AFF2090EBAE80F0013F0A3
:10020000010F18BFFB1A43F0010318479C7A000046
:10021000BC7A0000103A24BF78C878C1FAD85207D7
:1002200024BF30C830C144BF04680C607047000070
:100230000023002400250026103A28BF78C1FBD8EF
:10024000520728BF30C148BF0B607047642900F0D7
:10025000EB80002070471FB507F050F81FBD10B5A8
:1002600010BD00F078FA1146FFF7F5FF06F0A6FE84
:1002700000F096FA03B4FFF7F2FF03BC00F09EFA19
:100280000948804709480047FEE7FEE7FEE7FEE72A
:10029000FEE7FEE7FEE7FEE7FEE7FEE70448054966
:1002A000054A064B7047000099590008D90100081B
:1002B0009840002098460020984200209842002054
:1002C00053EA020C00F069802DE9F04B4FF0000674
:1002D000002B1FBFB3FA83F503FA05F424FA05F6E1
:1002E0005E4012BF1643B2FA82F502FA05F4C5F178
:1002F00020051EBF22FA05FC44EA0C04203556EA0C
:10030000044C4FEA144418BF641C4FF000084FF02F
:100310000009904271EB030C39D3002919BFB1FADF
:1003200081F701FA07F6B0FA80F700FA07F6C7F18D
:1003300020071EBF20FA07FC46EA0C062037B6FB52
:10034000F4FCA7EB0507103F07F01F0BCBF12006CD
:100350000CFA0BFB2CFA06F644BFB3460026202FFE
:10036000A4BF5E464FF0000B5BEA060C08BF4FF0DF
:10037000010B19EB0B09ABFB027C48EB0608C01B19
:1003800006FB02CC0BFB03CC71EB0C01C1E70B4667
:10039000024641464846BDE8F08B13B54FF00000D9
:1003A0004FF00001AFF30080BDE81C407047000033
:1003B0000FB41CB5074B06AA7B446946009005980C
:1003C00000F0B1F90020694600F0C0F91CBC5DF8EE
:1003D00014FB00009103000070B5044685690068B5
:1003E000C10601D5302600E02026C00707D070BD29
:1003F000D4E9012130469047206A401C20626D1EDE
:10040000F6D570BD70B5044685690078C00707D180
:1004100070BDD4E9012120209047206A401C206251
:100420006D1EF6D570BD00002DE9F0410646002492
:1004300010687529314616A510D0AFF3008000284A
:1004400002DA404213A507E031688A0701D512A5F8
:1004500002E0490704D511A5012401E0AFF30080B3
:1004600000210A2206F1240709E0B0FBF2FCB0FBF0
:10047000F2F302FB1C00303078541846491C002867
:10048000F3D123462A463046BDE8F04100F0EDB8EE
:10049000000000002D0000002B00000020000000E4
:1004A0002DE9F05F894604464FF0000ADFF824B1D9
:1004B000FB44C0F820A02046E168884700287DD092
:1004C000252806D0D4E901219047206A401C2062EB
:1004D000F1E700255F462046E16888472028064668
:1004E00007DB312E05D2B81910F8200C08B10543EE
:1004F000F1E7A80701D525F00405C4F81CA00027E2
:10050000C4F818A02A2E09D0304606F093FB38B361
:1005100004EB8708303EC8F8186019E059F8041B4E
:10052000204604EB87029161E1688847012F064667
:1005300018D1E069002820DA25F020051DE0D8F860
:10054000180000EB800006EB40003038C8F81800B7
:100550002046E1688847064606F06CFB0028EED18D
:10056000012F0AD02E2E08D12046E16888477F1C33
:100570000646022F45F02005C4DBA069002803DAF7
:10058000404245F00105A061E80701D025F01005C3
:10059000A6B1A6F14100192802D8203645F400651D
:1005A0004A463146204625604D46FFF74FFE60B172
:1005B000012807D0ED1D25F0070000E007E000F15D
:1005C000080978E705F1040975E730467AE7206AFB
:1005D000BDE8F09FE277000010B5431C02E010F880
:1005E000011B71B18107FAD14FF0013202C88C1A98
:1005F0008C4314EAC211F9D0C01A0A0603D0C01EF7
:1006000010BDC01A10BD0A0401D0801E10BD090221
:10061000FCD0401E10BD4FF0000200B513469446BA
:100620009646203922BFA0E80C50A0E80C50B1F14A
:100630002001BFF4F7AF090728BFA0E80C5048BF5E
:100640000CC05DF804EB890028BF40F8042B08BFFC
:10065000704748BF20F8022B11F0804F18BF00F8F8
:10066000012B70477047704770472DE9F0470D46E2
:1006700099469246044600F124080168880604D58C
:10068000E06921F01001216000E00120A84201DDB5
:10069000471B00E00027A1697A1902EB0900081A3C
:1006A000A0612078C00602D42046FFF795FE002600
:1006B00008E0D4E901211AF806009047206A401C9E
:1006C000761C20624E45F4DB2078C0060AD5204611
:1006D000FFF782FE06E0D4E9012130209047206A2E
:1006E000401C2062381EA7F10107F4DC07E0D4E9C2
:1006F000012118F805009047206A401C2062281E3E
:10070000A5F10105F3DC2046FFF77CFE207800060A
:1007100002D50220BDE8F0870120FBE701694A1CF1
:1007200002610878704700B58FB0CDE90131002132
:10073000059105497944CDE9031011466846FFF754
:10074000AFFE0FB000BD0000E5FFFFFF0A6802F832
:10075000010B0A607047754600F02CF8AE460500A4
:100760006946534620F00700854618B020B5FFF7CC
:1007700095FDBDE820404FF000064FF000074FF018
:1007800000084FF0000B21F00701AC46ACE8C009AF
:10079000ACE8C009ACE8C009ACE8C0098D467047B8
:1007A00010B50446AFF300802046BDE81040FFF7C7
:1007B00061BD000000487047344000200149182006
:1007C000ABBEFEE72600020070470000014800F0C3
:1007D00059BB00009800002010B5846AE16D11F04B
:1007E000500F06D0E16DC90630D5204600F049FB18
:1007F00010BDE06D40F40070E065206801680907F5
:1008000012D504F095FBE8B12068C068800419D4C3
:10081000E06D20F48070E065E06DC00412D4E06DFE
:1008200040F00100E0650DE0C06880070AD4E06D8B
:1008300020F48070E065E06DC00403D4E06D40F00A
:100840000100E065204600F009FB10BD616D496BB9
:10085000BDE81040084710B5806AC16D41F0400105
:10086000C165016E41F00401016600F00AFB10BD94
:1008700010B5806A00F004FB10BD0000F8B5044616
:1008800000200090206804F04BFB78BB2068816852
:10089000284A114209D0E06D40F01000E065206E5A
:1008A00040F0010020660120F8BD8168214E7F3EA6
:1008B0003140491C81602048806800F0E0700002EF
:1008C00010D51E481E490068B0FBF1F0401C00EB3B
:1008D00040008000009002E00098401E00900098C8
:1008E0000028F9D101F09CF905461CE020E004F055
:1008F00017FB20B9206881683140491C816001F0F4
:100900008FF9401B02280ED920680068C043C00739
:1009100009D0E06D40F01000E065206E40F001006D
:1009200020660120F8BD20680168C943C907DED1EF
:100930000020F8BD3F000080000300508000002030
:10094000400D0300FEE70000014800F063BF000017
:10095000D43F0020014800F05DBF0000743F00203C
:100960000D4902688A4201D20C4901E00B4920314D
:10097000D2B2083A1423B2FBF3F2436C23F0030320
:100980001944816405498031C16402F01F020121CC
:1009900091400165704700000804024000080240D1
:1009A0000179074A491E02EB81024265044A40323E
:1009B000826501F01F0201219140C165704700006E
:1009C0000009024030B5D0E913546C60446D002C2E
:1009D00002D0D0E916546C6090F8444004F01F0532
:1009E0000124AC40056C6C60046863608368102B64
:1009F00004D0036899600068C26030BD03689A60E3
:100A00000068C16030BD704703E00121491E4A1CE7
:100A1000FCD1401E411CF8D1704772B6FEE770470A
:100A200070477047704770472DE9F84F04460D46F0
:100A3000002600270097DFF8F49394F85800012867
:100A400011D04FF0010884F85880206804F06CFA47
:100A500058B1E06D40F02000E065012684F8587040
:100A60003046BDE8F88F0220FBE7A98820682A6895
:100A700001F4407300EB9310036B01F01F014FF082
:100A80001F0C0CFA01FCC2F3846223EA0C038A40B7
:100A900013430363206804F047FA8246206804F099
:100AA0003BFA5AEA000A3CD1AA68B2F1004F39D0A9
:100AB0002968206804F044FA2068416921F0004167
:100AC000416120686A69C168C1F3C10149008A4077
:100AD0002969042934D02B6800EB8100016EDFF80E
:100AE00050C303F0F84301EA0C011343194341F0EA
:100AF0000041016620682A69A96900EB8200026E44
:100B000022F080720A430266297F20682A6901293F
:100B100013D0002100EB8200026E22F000720A4323
:100B200002667CE029680022206804F009FA206847
:100B3000416941F000414161C3E74FF00071E9E7CD
:100B4000002104F0E3F940036ED00021206804F096
:100B5000DDF990FAA0F0B0FA80F1286842036AD07B
:100B600090FAA0F0B0FA80F0814204D10022114640
:100B7000206804F0F4F90121206804F0C7F940036B
:100B80005CD00121206804F0C1F990FAA0F0B0FA1D
:100B900080F12868420358D090FAA0F0B0FA80F0B3
:100BA000814204D100220121206804F0D8F90221F9
:100BB000206804F0ABF940034AD00221206804F019
:100BC000A5F990FAA0F0B0FA80F12868420346D067
:100BD00090FAA0F0B0FA80F0814204D10022022104
:100BE000206804F0BCF90321206804F08FF9400369
:100BF00038D00321206804F089F990FAA0F0B0FA07
:100C000080F12868420334D090FAA0F0B0FA80F066
:100C1000814204D100220321206804F0A0F9206859
:100C200004F07EF940B3B0E00021206804F06EF9D2
:100C3000C0F3846191E7C0F3846095E701212068E7
:100C400004F064F9C0F38461A3E7C0F38460A7E70C
:100C50000221206804F05AF9C0F38461B5E7C0F3BB
:100C60008460B9E70321206804F050F9C0F384617F
:100C7000C7E7C0F38460CBE720682A7B296850F877
:100C8000B03FC1F3120C23EA0C0302F0180C694ABE
:100C900022FA0CF20A4013430360E868484574D115
:100CA0002868410319D090FAA0F1B1FA81F1491CEA
:100CB00001F01F01092931D84103002910D090FA11
:100CC000A0F1B1FA81F101F1010101F01F0108FA6F
:100CD00001F808D1C0F3846109E0C0F38461E6E75C
:100CE000C0F38461EFE790FAA0F1B1FA81F101F16C
:100CF000010101F01F0148EA816102D1C0F3846063
:100D000003E090FAA0F0B0FA80F000F1010000F0EA
:100D10001F0000EB400041EA005132E04FEA403151
:100D200000290DD090FAA0F1B1FA81F101F1010191
:100D300001F01F0108FA01F805D1C0F3846106E053
:100D4000C0F38461F2E790FAA0F1B1FA81F101F108
:100D5000010101F01F0148EA816102D1C0F3846002
:100D600003E090FAA0F0B0FA80F000F1010000F08A
:100D70001F00A0F10A0000EB400041EA005040F0E3
:100D80000071AA68206804F0DBF82B48296801424A
:100D90003FF464AE294A906800F0E070284B994215
:100DA00002D0284B99421FD103021DD42168B1F112
:100DB000A04F7FF453AE40F40000916821F0E07141
:100DC00001439160204821490068B0FBF1F0401CCC
:100DD00000EB40008000009002E00098401E009070
:100DE00000980028F9D139E6194D1A4BA9420CD1C7
:100DF000C5010AD421689942F5D040F0807091680D
:100E000021F0E0710143916028E6134DA942EAD137
:100E10004102E8D421689942E5D040F4800091680D
:100E200021F0E0710143916018E6000000007F406E
:100E300000F0FF03FFFF07000000088000030050E0
:100E4000000021C31000C09080000020400D03006E
:100E5000000052C700010050000084CB10B50068AC
:100E60000549884206D106F0EFF904488178012946
:100E700000D1816410BD000000010050000000207E
:100E8000704770472DE9F05F04464FF00008206876
:100E9000056846689A48806800F01F07A8070ED5C5
:100EA000B0070CD5E06DC00603D4E06D40F40060DF
:100EB000E0652046FFF7B3FD216802200860DFF8F7
:100EC00044B268074FF0A04901D5700703D4280742
:100ED00037D5300735D5E06DC00603D4E06D40F45A
:100EE0000070E065206804F023F820B320685845BE
:100EF00001D1494600E00146814208D03FB1052FAB
:100F000005D0092F03D0584503D1494602E0C168F6
:100F100001E00146C96889040DD4016809070AD5B2
:100F200004F002F858B3E06D40F01000E065206E68
:100F300040F0010020662046FFF790FF21680C205A
:100F40000860A80601D5B00603D4680656D5700619
:100F500054D5E06DC00603D4E06D40F40050E06568
:100F60002068C16C11F4C07F1AD04FF0000A03F062
:100F7000DFFF02462068584515D1494614E0206835
:100F8000416821F00C014160E06D20F48070E06563
:100F9000E06DC004CFD4E06D40F00100E065CAE729
:100FA0004FF0010AE3E70146814265D0F7B3062F0F
:100FB00062D0072F60D0584500D08146D9F80C1078
:100FC000BAF1000F14D08B0102D58AB18A040FD474
:100FD000026852060CD589020AD403F09DFF30B393
:100FE000E06D40F01000E065206E40F001002066EA
:100FF0002046FFF715FD21686020086028060BD504
:10100000300609D5E06D40F48030E065204600F000
:101010007BF9216880200860E8050FD5F0050DD523
:10102000E06D40F40030E065204601E024E025E07A
:10103000FFF7F8FC21684FF480700860A8050CD514
:10104000B0050AD5E06D40F48020E0652046FFF74A
:10105000EAFC21684FF400700860E80639D5F00614
:1010600037D5E06BD8B1EFB12548806800F4604017
:10107000F0B14FF001081BE0C168A1E720684168AA
:1010800021F060014160E06D20F48050E065E06D8A
:10109000C005ADD4E06D40F00100E065A8E74FF079
:1010A000010805E02068C068C00701D04FF00108C2
:1010B000B8F1010F0AD1E06D40F48060E065206E68
:1010C00040F0020020662046FFF7DBFE216810207A
:1010D0000860680512D5700510D5E06D40F48040B9
:1010E000E065206E40F00800206621684FF48060C3
:1010F00008602046BDE8F05FFFF793BCBDE8F09FB5
:101100000003005000010050F8B5044600250026F9
:101110000096002C02D0E06D10B107E00120F8BD70
:10112000204600F0F3F8266684F85860206881684D
:10113000C1F3407119B181686C4A11408160206827
:101140008168C1F30071A1B98168694A114041F019
:1011500080518160674868490068B0FBF1F0401C2D
:101160004000009002E00098401E00900098002887
:10117000F9D120688168C1F3007141B9E16D41F096
:101180001001E165216E41F001012166012503F0A6
:10119000CBFEE16DC90600D430B1E06D40F0100027
:1011A000E06501252846F8BDE06D20F4807040F030
:1011B0000200E065206803F0B3FE88B94FF0A0405C
:1011C0008068C0F300004D498968C1F300010843FD
:1011D00006D160684A498A6822F47C1202438A6018
:1011E000E168E06B627F0843A16841EA423108434D
:1011F00094F8241040EA0140012903D1218D491EB1
:1012000040EA4140E16A29B101F47871226B01435F
:1012100042EA01002168CA683A4B1A400243CA6098
:1012200020680169626B21F040611143016120680F
:1012300003F072FE80BB207F94F83810800340EAF0
:1012400041012068C26844F202039A430A43C26023
:10125000206968B12068016941F48031016120682A
:1012600050F8C01F22696FF30D01114301600AE0BD
:101270002068016921F480310161206850F8C01FA5
:101280006FF30D01016094F84000012813D020682D
:10129000016921F001010161606901281CD0206809
:1012A000016B21F00F010163E06D20F0020040F0BE
:1012B0000100E06576E7D4E911100143D4E9130297
:1012C000104301432068026940F2FC739A431143C2
:1012D00041F001010161DFE72068016B226A21F022
:1012E0000F01521E11430163DEE70000C0FFFF5FE4
:1012F000C0FFFF7F80000020400D03000001005070
:10130000000300500740F0FF7047000070B598B030
:101310000646142113A8FFF77EF9442102A8FFF71F
:101320007AF925493068884244D1C001029080038F
:10133000119002A801F036F808B1FFF76EFB1F49C3
:10134000C86C40F40050C864C86C00F400500190B0
:10135000C86C40F00100C864C86C00F00100019046
:1013600001201390032014900025159513A94FF028
:10137000904000F06FFB134C114820602420606007
:10138000A560E56080202061400060618000A06170
:10139000E5612562204600F0A3FA08B1FFF73DFBA6
:1013A0007465A66200221146122000F05BFF122035
:1013B00000F04AFF18B070BD00010050001002405C
:1013C0001C000240743F00202DE9F04104460E4607
:1013D00017463548806800F01F05206803F0A4FD1B
:1013E00010B10220BDE8F08194F8580001280CD01B
:1013F000012084F858004FF0000845B1052D06D0B3
:10140000092D04D084F85880ECE70220EAE7204652
:10141000FFF734FA10B184F85880E3E7E06D40F646
:101420000161884340F48070E0652049206888426B
:1014300002D14FF0A04200E00246824200D01DB926
:10144000E06D20F48010E065E06DC00404D5206EEE
:1014500020F00600206601E0C4F86080616D144849
:10146000C862616D13480863616D13484863216861
:101470001C20086084F858802068416841F0100101
:1014800041602068C16841F00101C16021683B46AC
:1014900040313246606D00F083FA21688A68074B5C
:1014A0001A40121D8A609DE70003005000010050A1
:1014B000D90700087108000857080008C0FFFF7F1F
:1014C0002DE9F05F04460D4693464FF00009002CCD
:1014D0000FD075B1607901280ED04FF0010884F863
:1014E000058002202071A8680BF01006042805D0A2
:1014F00051E00120BDE8F09F0220FBE700F090FBE7
:1015000007464FF0030ABBF1000F11D029E000F0AD
:1015100087FBC01B01280BD92068406B000407D54E
:10152000206940F00800206184F804A00320E1E76E
:101530002068406B0004EAD42168686A086417E0F8
:1015400000F06EFBC01B01280BD92068406B0028FF
:1015500007DA206940F00800206184F804A0032025
:10156000C8E72068406B0028EADB2168686A4864A5
:101570002068816C40F2FF32B2409143AA6AB240C7
:10158000114381642068C16CFF22B2409143EA6A32
:10159000B2401143C164E869012808D12068816B19
:1015A0001F22B24091432A6AB2400A4382632068F4
:1015B000C16B0720B0408143A86901285BD0022895
:1015C0005BD06869F0B300206B69AA681A430243D4
:1015D0004FF4807000FA06F399432B79012B00D069
:1015E000002010434FF4007A0AFA06F291436A7918
:1015F000012A01D04FF0000A4AEA000A21F44047CC
:10160000286802283DD007430AFA06FA4AEA070A80
:101610002068C0F83CA0206802684FF48041B140C7
:101620008A4302602068026840F6FE71B1408A4336
:10163000E968B1401143016020680168C022B240EE
:10164000914300E01BE00160287BC0F38300297C0C
:1016500001F03C0140EA81112068026E40F60F73F0
:10166000B3409A43B1400A43026684F804800020E4
:10167000607148463EE70020A6E70120A4E701206C
:10168000A2E701F0BFF80649884202D947F40047B3
:10169000BAE704498842B7D947F48047B4E7000065
:1016A0000068890900B4C40470B50446002C03D056
:1016B0002079002510B105E0012070BD657120463C
:1016C00000F008F80220207125610120207100201F
:1016D00070BD000010B586B00446142101A8FEF7C5
:1016E0009AFF1149206888421BD11048C16C41F40F
:1016F0008031C164C16C01F480310091C16C41F052
:101700000101C164C06C00F0010000901020019044
:10171000032002900020039001A94FF0904000F0B8
:1017200099F906B010BD00000008005000100240FA
:1017300010B5002190F825200123022A03D00421AE
:10174000C163012122E00268146824F00E041460D1
:10175000826C146824F4807414600268146824F0A5
:101760000104146090F84420046C02F01F0203FA94
:1017700002F26260D0E913426260426D32B11468D5
:1017800024F480741460D0E91642626024304370FF
:1017900000220270084610BD70B5002490F8251094
:1017A00000230122022906D00421243081614270E5
:1017B0000370012429E001680D6825F00E050D6015
:1017C00001680D6825F001050D60816C0D6825F438
:1017D00080750D6090F84410154601F01F018A4095
:1017E000016C4A60D0E913215160416D31B10A6842
:1017F00022F480720A60D0E91621516080F82550E9
:1018000080F82430816B01B18847204670BD90F884
:1018100025007047F0B4016C0A6801680B6890F805
:101820004440042604F01F0406FA04F5154215D0BE
:101830005D0713D50A68920603D40A6822F00402F1
:101840000A6090F8441001F01F0106FA01F5016CDE
:101850004D60016B002941D0F0BC08474FF0020CED
:101860000CFA04F616424FF000074FF0010519D0AC
:101870009E0717D50A68920605D40A6822F00A0264
:101880000A6080F8255090F8441001F01F010CFA0E
:1018900001F6016C4E6080F82470C16A00291DD0E9
:1018A000F0BC08470826A640164217D01A0715D5DF
:1018B0000A6822F00E020A6090F84410026C01F0EF
:1018C0001F0105FA01F15160C56380F8255080F8C9
:1018D0002470416B002901D0F0BC0847F0BC704770
:1018E00070B50446002C0DD02A4A2068142190427D
:1018F0000AD2294A0244B2FBF1F189006164274906
:1019000021640BE0012070BD224A52420244B2FB26
:10191000F1F1890061641F4908392164022184F8CA
:101920002510026847F6F0718A43D4E9021319437F
:10193000D4E904352B431943A3691943E3691943D7
:10194000236A1943114301602046FFF709F8A06894
:101950000025B0F5804F00D16560A16C207908604A
:10196000D4E9131048606068401E032808D8204658
:10197000FFF716F8606D0560D4E91610486002E0C4
:101980006565A565E5652434A56101206070257055
:10199000002070BD08040240F8FFFDBF00000240B7
:1019A00070B50446002594F8240001280CD00120CD
:1019B00084F8240094F825600020012E06D084F8D5
:1019C00024000225284670BD022070BD022684F83E
:1019D0002560E0632068066826F001060660204660
:1019E000FEF7F0FF206B28B12068016841F00E017E
:1019F000016009E02068016821F0040101602068AD
:101A0000016841F00A010160A06C0168C90303D5B7
:101A1000016841F480710160606D18B1016841F4A2
:101A2000807101602068016841F001010160C9E72F
:101A300070B5044600F0F4F80546601C02D0044876
:101A40004068044400F0ECF8401BA042FAD370BD9B
:101A5000740000202DE9F84F0022DFF888914FF044
:101A6000010803274FF00F0C09F1040AA9F1040B38
:101A7000B1E008FA02F52B40002B72D00C7904F08B
:101A80000304012C01D0022C15D18668540007FAFA
:101A900004FE26EA0E06D1F80CE00EFA04FE4EEA29
:101AA000060EC0F808E04468AC430D79C5F3001594
:101AB0009540254345600C79E443A40708D0C568E8
:101AC000540007FA04F6B5438E68A6402E43C6605C
:101AD0000C7904F00304022C11D1D40800EB840625
:101AE000356A5407E40E0CFA04FE25EA0E05D1F817
:101AF00010E00EFA04FE4EEA050EC6F820E0056876
:101B0000540007FA04F6B5430E7906F00306A64022
:101B10002E4306604C6814F4403F5BD0324C256E77
:101B200045F001052566246E04F0010400942F4C55
:101B300022F003052E19B56894074FEA147E0CFABB
:101B40000EF4A543B0F1904F04D0294CA04203D12C
:101B5000012417E0002415E0264CA04202D1022403
:101B600010E037E0244CA04201D103240AE0234CCA
:101B7000A04201D1042405E0214CA04201D105245A
:101B800000E0062404FA0EF42C43B460D9F80040B7
:101B90009C434D68ED0200D51C43C9F80040DAF8BB
:101BA00000409C434D68AD0200D51C43CAF800407C
:101BB000DBF800409C434D68AD0300D51C43CBF8D7
:101BC0000040084D083D2C689C434E68F60300D544
:101BD0001C432C60521C0B6833FA02F47FF449AFAB
:101BE000BDE8F88F080401400010024000000140E9
:101BF0000004004800080048000C0048001000489D
:101C0000001400480069084201D0012070470020FC
:101C10007047002A01D081617047816270470000DF
:101C200001488068704700007400002090F841204F
:101C3000202A01D00220704790F84020012A20D0AD
:101C4000012280F84020242280F841200268136895
:101C500023F0010313600268136823F480531360B8
:101C6000026813680B43136001680A6842F00102BE
:101C70000A60202180F84110002180F840100020E7
:101C800070470220704790F84120202A01D002209E
:101C9000704790F84020012A1ED0012280F8402091
:101CA000242280F841200268136823F001031360A6
:101CB0000268136823F4706343EA0121116001682C
:101CC0000A6842F001020A60202180F841100021D8
:101CD00080F84010002070470220704770470000D5
:101CE00070B504461148226882421DD1104D4FF054
:101CF000807319B1A87916280BD00CE02879002838
:101D000012D02046BDE8704009490122891D00F02B
:101D10006DB905F09FFAA979E86C012201442046CB
:101D2000BDE8704000F0CEB970BD00000078004002
:101D30000000002030B4026893691168DB43DC05C1
:101D400009D4CC43240606D4446C44F00104446412
:101D50004FF48074D4615A050AD4CA43120607D4DA
:101D6000426C42F00802426404684FF48062E2610F
:101D70009A050AD4C943090607D4416C41F002010F
:101D8000416402684FF40071D161416C11F00B0F96
:101D900002D030BC02F00EBA30BC704702689169C4
:101DA0001268436B002B00D01847704710B590F8AD
:101DB0004110202901D0022010BD282180F84110B7
:101DC000034941634FF4004102F04EF9002010BD79
:101DD000ED4A00087047000070B50446002C04D09E
:101DE00094F84100002510B106E0012070BD84F890
:101DF0004050204600F06AF8242084F84100206812
:101E0000016821F0010101606068216820F07060C4
:101E100008612068816821F400418160E068012840
:101E200031D0A068216840F404408860E06802284E
:101E30002FD02068416821F400614160206841682A
:101E4000174A114341602068C16821F40041C16014
:101E5000D4E904010843A16940EA01202168C8606F
:101E6000D4E907010843216808602068016841F04F
:101E7000010101606564202084F84100256384F835
:101E80004250002070BDA068216840F40040886086
:101E9000CCE72068416841F400614160CEE7000072
:101EA00000800002054A0168914206D104490122DE
:101EB0000A7100228A71FFF779BF704700780040ED
:101EC00000000020704770477047704770B598B0A9
:101ED0000446142113A8FEF79EFB442102A8FEF736
:101EE0009AFB27492068884248D18615029600252A
:101EF0000A9502A800F056FA08B1FEF78EFD214CB3
:101F0000E06C40F00100E064E06C00F00100019042
:101F1000E06C40F00200E064E06C00F00200019030
:101F2000139612261496159516950220179013A94C
:101F3000B006FFF78FFD2020139014961595169587
:101F40000820179013A91048FFF784FDA06D40F0FA
:101F50008040A065A06D00F08040019000221146F5
:101F60005C2000F07FF95C2000F06EF90022114641
:101F70005D2000F077F95D2000F066F918B070BDC3
:101F80000078004000100240000400480A4A01683E
:101F9000914210D109490A7912B100220A7102E076
:101FA0008A79521C8A71CA6C89794FF08073114406
:101FB000322200F01BB8704700780040000000207B
:101FC000084A016891420BD1074A9179491CC9B26C
:101FD0009171D26C4FF080731144322200F072B8CC
:101FE0007047000000780040000000202DE9F0411B
:101FF00004460D461646984694F84110282088431A
:1020000002D00120BDE8F08195B18EB148F20207FF
:102010003946204601F0FBFF94F8400001280CD01F
:10202000012084F8400094F84100292807D01DE0E1
:102030004FF4007060640120E4E70220E2E7012130
:10204000204601F0E4FF2068016849040ED50168CC
:1020500021F480410160A06B40B118498163A06BFD
:10206000FFF79AFB10B1A06B816B88472A2084F898
:102070004100202084F84200002262642068416808
:1020800021F40041416065626685608D2085C4F859
:102090002C800B48606320688169C1F3C0018369AB
:1020A000DB0302D409B10821C16184F8402039461C
:1020B000204601F0D9FF0020A4E70000F93F000806
:1020C000ED4A00082DE9F04104460D4616469846B3
:1020D00094F841102820884302D00120BDE8F08107
:1020E00095B18EB148F201073946204601F08FFFC5
:1020F00094F8400001280CD0012084F8400094F8A6
:1021000041002A2807D01DE04FF4007060640120D0
:10211000E4E70220E2E70221204601F078FF206890
:10212000016809040ED5016821F400410160E06BEB
:1021300040B118498163E06BFFF72EFB10B1E06BF3
:10214000816B8847292084F84100202084F84200D0
:10215000002262642068416821F4004141606562A8
:102160006685608D2085C4F82C800B4860632068EC
:102170008169C1F3C0018369DB0302D509B108217C
:10218000C16184F840203946204601F06DFF0020EF
:10219000A4E70000F93F0008ED4A00080248816802
:1021A00042681144816070477400002010B500241B
:1021B000032000F077F80F2000F008F808B10124A0
:1021C00001E000F029F8204610BD000070B505467A
:1021D00000240F4E7068002817D04FF47A71B1FBBD
:1021E000F0F00C490968B1FBF0F000F097FD08B180
:1021F00001240BE0102D06D200222946501E00F0CB
:1022000031F8356002E0012400E00124204670BD71
:10221000740000208000002082B00A48016E41F066
:1022200001010166016E01F001010191816D41F032
:1022300080518165806D00F08050019002B000F007
:10224000A9B8000000100240002809DB00F01F02BE
:10225000012191404009800000F1E020C0F8001108
:1022600070470000F0B40D460D4B1B68C3F302230A
:10227000C3F10704042C00D90424191D072901D235
:10228000002300E0DB1E012606FA04F1491E294066
:1022900099409E40761E16403143F0BC04F0BABC13
:1022A0000CED00E000F00701054A10684FF6FF034F
:1022B000184040EA012003490843106070470000BD
:1022C0000CED00E00000FA052F49304B0A6832217E
:1022D0004A432F4900280AD0B0F5007F2DD0086866
:1022E00020F4C06040F480600860002070470868F7
:1022F000C0F34120022805D051F8800F20F48070EF
:102300000860F2E7D1F8800020F48070C1F8800006
:10231000086820F4C06040F400700860B2FBF3F07D
:10232000401C00E0401E4A69520501D50028F9D141
:1023300048694005D9D5032070470868C0F341209B
:10234000022805D051F8800F40F480700860CCE777
:10235000D1F8800040F48070C1F88000086820F453
:10236000C06040F400700860B2FBF3F0401C00E075
:10237000401E4A69520501D50028F9D14869400537
:10238000B3D50320704700008000002040420F00BA
:10239000007000400248816841F4804181607047CC
:1023A000007000402DE9F84F044600260027206801
:1023B000A04D000366D54FF00008A86DC00009D4F9
:1023C000A86D40F08050A865A86D00F08050009086
:1023D0004FF00108DFF860A2DAF8000040F48070E6
:1023E000CAF80000FFF71CFC814607E0FFF718FC65
:1023F000A0EB0900022801D9032603E0DAF8000067
:10240000C005F3D526B13746B8F1010F36D039E013
:10241000D5F8900000F4407080B1216C81420DD05D
:1024200055F8900F20F44070296841F480312960FC
:10243000296821F48031296045F89009C00711D03E
:10244000FFF7EEFB814641F2883A07E0FFF7E8FB31
:10245000A0EB0900504501D9032603E0D5F8900010
:102460008007F3D50EB13746CEE7D5F89000216C42
:1024700020F440700843C5F89000C5E7A86D20F02F
:102480008050A8652078C00707D0D5F8880061681B
:1024900020F003000843C5F888002078800707D59E
:1024A000D5F88800A16820F00C000843C5F8880022
:1024B0002078400707D5D5F88800E16820F0300083
:1024C0000843C5F888002078000707D5D5F88800AC
:1024D000216920F0C0000843C5F8880020788006F4
:1024E00007D5D5F88800616920F440600843C5F835
:1024F00088002078400607D5D5F88800A16920F427
:1025000040500843C5F888002078000607D5D5F864
:102510008800E16920F440400843C5F8880020881D
:10252000C00507D5D5F88800216A20F4403008435B
:10253000C5F888002088800507D5D5F88800616A2D
:1025400020F440200843C5F88800208840050FD5B6
:10255000D5F88800A16A20F440100843C5F8880027
:10256000A06AB0F5801F03D1E86840F48010E860ED
:10257000208800050FD5D5F88800E16A20F44000D6
:102580000843C5F88800E06AB0F5800F03D1E86819
:1025900040F48010E8602088C0040FD5D5F888008A
:1025A000216B20F040700843C5F88800206BB0F123
:1025B000807F03D1E86840F48010E86020884FF005
:1025C000006180040ED5D5F88800626B20F0406071
:1025D0001043C5F88800606B884203D1E86840F476
:1025E0008010E860208840040ED5D5F88800A26BE2
:1025F00020F040601043C5F88800A06B884203D1EA
:10260000E86840F48010E860208800040FD5D5F811
:102610008800E16B20F040500843C5F88800E06B6B
:10262000B0F1805F03D1E86840F48030E86038465C
:10263000BDE8F88F00100240007000402DE9F0471F
:1026400004460D460027002C17D0DFF8A091D9F8DA
:10265000000000F00F00A84211D2D9F8000020F0CD
:102660000F002843C9F80000D9F8000000F00F005F
:10267000A84204D00120BDE8F0870120FBE72078C4
:102680005B4EC00741F2883A4ED06068DFF8648143
:10269000032806D002281ED03068400520D401202F
:1026A000E9E73068800101D40120E4E703F0E2F8B3
:1026B000404520D9B06810F0F00F04D02078800792
:1026C00019D5A068B8B9B06820F0F00040F08000DB
:1026D000B06080270FE03068800301D40120CAE792
:1026E00000F0BAF8404506D9B06820F0F00040F09C
:1026F0008000B0608027B068616820F00300084364
:10270000B060FFF78DFA804607E0FFF789FAA0EB8B
:102710000800504501D90320ADE7B068616800F0BA
:102720000C00B0EB810FF0D12068810715D5400770
:1027300003D5B06840F4E060B0602078000705D5AC
:10274000B06820F4605040F4E060B060B068A16808
:1027500020F0F0000843B06005E0802F03D1B0689E
:1027600020F0F000B060D9F8000000F00F00A8429F
:1027700017D9D9F8000020F00F002843C9F800004D
:10278000FFF74EFA074606E0FFF74AFAC01B50452E
:1027900001D903206FE7D9F8000000F00F00A8422C
:1027A000F2D12078400705D5B068E16820F4E060F8
:1027B0000843B0602078000706D5B068216920F48E
:1027C000605040EAC100B06000F046F8B1680A4AC3
:1027D000C1F30311515C01F01F01C84007490860B3
:1027E00007480068BDE8F047FFF7F0BC0020024052
:1027F0000010024000B4C4047E7C00088000002069
:10280000740000200148006870470000800000202C
:1028100000B5FFF7F7FF05498968054AC1F30221B2
:10282000515C01F01F01C84000BD000000100240D3
:102830008E7C000800B5FFF7E5FF05498968054A69
:10284000C1F3C221515C01F01F01C84000BD00006E
:10285000001002408E7C000810B51A4A9068C0F340
:102860008101194801290BD091684410C1F38101FD
:10287000022906D09168C1F38101032903D0002009
:1028800010BD204610BDD16801F00303D168C1F32B
:102890000311491C032B0DD0B0FBF1F0D168C1F33B
:1028A00006214843D168C1F34161491C4900B0FB8E
:1028B000F1F010BDB4FBF1F0D168C1F3062148433B
:1028C000F0E70000001002400024F4002DE9F84376
:1028D0000446002C0CD02078FE4DC00752D0A868CA
:1028E00000F00C00E96801F003010C2803D004E0BB
:1028F0000120BDE8F883032916D0082814D06068A9
:10290000B0F5803F17D0B0F5A02F19D0286820F47B
:1029100080302860286820F480202860606818B320
:10292000FFF77EF906461BE0286880032AD5606819
:1029300040BB0120DDE7286840F480302860EDE7E7
:10294000286840F480202860286840F4803028609F
:10295000E4E7FFF765F9801B642801D90320C8E785
:1029600028688003F5D50DE0FFF75AF9064606E022
:10297000FFF756F9801B642801D90320B9E72868BE
:102980008003F5D4207880074ED5A86800F00C00AD
:10299000E96801F003010C2801D102290BD00428B9
:1029A00009D0E06870B3286840F480702860FFF7B1
:1029B00037F906461BE02868400501D5E06868B194
:1029C0006868217C20F0FE4040EA01606860C248EF
:1029D0000068FFF7FBFB38B301208AE7012088E796
:1029E000FFF71EF9801B022801D9032081E7286820
:1029F0004005F5D56868217C20F0FE4040EA016082
:102A0000686011E0286820F480702860FFF708F9FA
:102A1000064606E0FFF704F9801B022801D90320CF
:102A200067E728684005F5D4207800072CD5606951
:102A3000A8B1D5F8940040F00100C5F89400FFF764
:102A4000EFF8064606E0FFF7EBF8801B022801D9F5
:102A500003204EE7D5F894008007F4D514E0D5F8AC
:102A6000940020F00100C5F89400FFF7D9F806465D
:102A700006E0FFF7D5F8801B022801D9032038E7CC
:102A8000D5F894008007F4D4207840076FD54FF034
:102A90000008A86DC00009D4A86D40F08050A8655A
:102AA000A86D00F0805000904FF001088B4E306808
:102AB000C00511D4306840F480703060FFF7B0F882
:102AC000074606E0FFF7ACF8C01B022801D9032037
:102AD0000FE73068C005F5D5A068012813D0052898
:102AE00018D055F8900F20F001002860286820F0D9
:102AF000040045F89009A06841F2883608B3FFF752
:102B00008FF8074618E0D5F8900040F00100C5F8AE
:102B10009000F0E755F8900F40F004002860286816
:102B200040F0010045F89009E5E7FFF779F8C01B90
:102B3000B04201D90320DCE6D5F890008007F4D537
:102B40000EE0FFF76DF8074606E0FFF769F8C01BD7
:102B5000B04201D90320CCE6D5F890008007F4D428
:102B6000B8F1010F03D1A86D20F08050A86520783E
:102B700080062CD5A069A8B1D5F8980040F00100D6
:102B8000C5F89800FFF74CF8064606E0FFF748F84E
:102B9000801B022801D90320ABE6D5F898008007F6
:102BA000F4D514E0D5F8980020F00100C5F898009D
:102BB000FFF736F8064606E0FFF732F8801B0228DA
:102BC00001D9032095E6D5F898008007F4D4E06990
:102BD000F0B3A9684FF0FF37C1F3810103295ED03C
:102BE000022807D0286820F080702860FFF718F8C6
:102BF00004464CE0286820F080702860FFF710F849
:102C0000064606E0FFF70CF8801B022801D90320D6
:102C10006FE628688001F5D454F8201F6068228A86
:102C2000401E41EA0010A16807EB5202090241EA86
:102C300042510843217D07EB510140EA4160217B6D
:102C400040EAC160E968264A11400843E86000E0B4
:102C500062E0286840F080702860E86840F080708A
:102C6000E860FEF7DDFF044606E0FEF7D9FF001B33
:102C7000022801D903203CE628688001F5D54BE005
:102C8000FEF7CEFF001B022801D9032031E6286899
:102C90008001F5D4E86813490840E8603CE0012869
:102CA00038D0E868226A00F00301914230D1616AAD
:102CB00000F0F002491EB2EB011F29D1A26A00F414
:102CC000FE41B1EB022F23D100F0784194F82C2083
:102CD0000AE0000000100240740000200070004074
:102CE0000C809F01FCFFEEFEB1EBC26F10D1228E73
:102CF00000F4C00107EB5202B1EB425F08D194F837
:102D0000341000F0C06007EB5101B0EB416F03D00D
:102D10000120EEE50120ECE50020EAE510B5401EBB
:102D2000B0F1807F01D3012010BD4FF0E02460613D
:102D30000F21601703F06EFF0020A06107202061C3
:102D4000002010BD704770477047000030B590F804
:102D50003C20012A42D0012280F83C20CA6800248D
:102D60008B6822F440721A434B6822F480621A4343
:102D70000B6822F400621A430B6922F480521A4352
:102D80004B6922F400521A430B6B22F480421A431F
:102D90000B8B22F4702242EA0342CB6922F080526C
:102DA0001A430F4D0368AB4202D00E4DAB4210D117
:102DB0000D8D22F4700242EA05520D6A22F08072F3
:102DC0002A434D6A22F000722A43C96A22F0005257
:102DD0000A435A6480F83C40002030BD022030BDD8
:102DE000002C0140003401407047704770470000DC
:102DF000F0B590F83C20012A34D0012680F83C60E0
:102E0000022280F83D2003685A689C68164FDFF85C
:102E10005CC0BB4201D0634503D122F470054A680F
:102E20002A43134D2A400D6815435D600268BA427B
:102E30000DD0B2F1804F0AD00E4B9A4207D00E4B04
:102E40009A4204D0624502D00C4B9A4204D124F03D
:102E500080038968194391603C30467000210170FD
:102E60000020F0BD0220F0BD002C014000340140E4
:102E70008FFFFFFD000400400008004000400140BB
:102E8000704710B50446002C03D094F83D0010B1F3
:102E900007E0012010BD002084F83C00204600F02F
:102EA00017F8022084F83D00211D206802F09CFDE7
:102EB00001203D34E0726070A070E070207160719C
:102EC000A071E07120726072A0722070002010BDAD
:102ED00008B50068284A2949904229D1086E40F473
:102EE00000600866086E00F4006000900022114641
:102EF0001820FFF7B7F91820FFF7A6F900221146AE
:102F00001920FFF7AFF91920FFF79EF900221146AB
:102F10001A20FFF7A7F91A20FFF796F900221146A9
:102F20001B20FFF79FF9BDE808401B20FFF78CB975
:102F3000B0F1804F0BD0124A904211D1886D40F011
:102F400002008865886D00F00200009008BD886D61
:102F500040F001008865886D00F00100009008BD18
:102F6000084A9042FBD1886D40F004008865886D66
:102F700000F00400009008BD002C01400010024049
:102F8000000400400008004090F83D10012901D0E5
:102F900001207047022180F83D10006812498842E4
:102FA0000ED0B0F1804F0BD01049884208D01049A4
:102FB000884205D00F49884202D00F4988420CD17F
:102FC00081680E4A114006290BD0B1F5803F08D028
:102FD000016841F00101016003E0016841F0010175
:102FE0000160002070470000002C014000040040F8
:102FF000000800400034014000400140070001008B
:1030000070B50446002594F83C00012814D0012630
:1030100084F83C60022084F83D0020688268394BC7
:103020001A4022F47F428260086870282DD010DC9C
:1030300010F00F0F03D021E04FF0020070BD4FEAF7
:103040002012072A1AD2DFE802F0565656564C389C
:1030500042002D4BC21A98424DD009DCB0F5805F7A
:103060000DD0B0F5005F1CD0B0F1101F06D142E0CA
:10307000102A40D0202A3ED0502A3CD001253C3492
:10308000667000202070284670BDCB68D1E9012110
:10309000206802F016FD2068816841F077018160A8
:1030A000EDE7CB68D1E90121206802F00AFD206834
:1030B000816841F480418160E1E7CA68496820681D
:1030C00002F0B2FE5021206802F006FDD7E7CA6880
:1030D0004968206802F0B9FE6021206802F0FCFC1B
:1030E000CDE7CA684968206802F09EFE402120684A
:1030F00002F0F2FCC3E722680146104602F0ECFC45
:10310000BDE7000088FFCEFF2000100070472DE9CA
:10311000F04104462068C66805694FF00007A9071A
:1031200014D5B10712D5F91E01610120207720685E
:103130008069800703D02046FFF7E8FF05E02046BE
:1031400000F042F9204600F021FA2777680717D5EA
:10315000700715D521686FF0040008610220207700
:103160002068806910F4407F03D02046FFF7CEFF2F
:1031700005E0204600F028F9204600F007FA2777FE
:10318000280716D5300714D521686FF008000861AC
:10319000042020772068C069800703D02046FFF70D
:1031A000B5FF05E0204600F00FF9204600F0EEF9EB
:1031B0002777E80617D5F00615D521686FF01000BF
:1031C0000861082020772068C06910F4407F03D090
:1031D0002046FFF79BFF05E0204600F0F5F820466B
:1031E00000F0D4F92777E80708D0F00706D0216867
:1031F0006FF001000861204600F062FB280601D450
:10320000A80408D5300606D521686FF4025008617D
:103210002046FFF798FDE80508D5300606D5216859
:103220006FF4807008612046FFF78CFD680608D5B2
:10323000700606D521686FF040000861204600F056
:1032400040FBA80608D5B00606D521686FF020001F
:1032500008612046FFF778FDE80208D5F00206D5A0
:1032600021686FF4801008612046FFF7BEFDA802B8
:1032700008D5B00206D521686FF400100861204619
:10328000FFF7B2FD680208D5700206D521686FF419
:10329000800008612046FFF7A9FD28020AD5300208
:1032A00008D521686FF4000008612046BDE8F041B0
:1032B000FFF7E6BDBDE8F081F0B587B00446142104
:1032C00002A8FDF7A8F93A4D21680023394A0224E3
:1032D0004FF09040A94213D1D16C41F00101D1646B
:1032E000D16C01F001010191D11402910394049376
:1032F00005930B21069102A9FEF7ACFB07B0F0BDC8
:103300000126B1F1804F15D02B4F2C4DB94222D15F
:10331000D06C40F00200D064D06C00F0020001904C
:103320000296039404930593069402A92846FEF797
:1033300091FBE3E7D16C41F00101D164D16C01F064
:10334000010101910294039404930593069602A946
:10335000FEF780FBD2E71A4EB14212D1D06C40F09A
:103360000200D064D06C00F0020001904815029079
:10337000039404930593069402A92846FEF76AFB7A
:10338000BCE7104DA942B9D1D16C41F00101D16423
:10339000D16C01F001010191042102910394049385
:1033A00005930921069102A9FEF754FBA6E7000048
:1033B000002C0140001002400004004000040048BE
:1033C0000008004000400140704770B504460D46BB
:1033D000002694F83C0001280BD0012084F83C0022
:1033E0000C2A4FD007DC82B1042A22D0082A06D149
:1033F00034E0022070BD102A59D0142A6BD0012667
:10340000002084F83C00304670BD2946206802F058
:103410006DFB2068816941F0080181612068816944
:1034200021F004018161206881692A691143816169
:10343000E6E72946206802F0A9FB2068816941F48B
:10344000006181612068816921F480618161206867
:1034500081692A6941EA02218161D1E72946206810
:1034600002F0DEFB2068C16941F00801C1612068FB
:10347000C16921F00401C1612068C1692A69114351
:10348000C161BDE72946206802F014FC2068C169CB
:1034900041F40061C1612068C16921F48061C161AA
:1034A0002068C1692A6941EA0221C161A8E7294669
:1034B000206802F049FC2068016D41F008010165B7
:1034C0002068016D21F0040101652068016D2A6901
:1034D0001143016594E72946206802F06DFC2068DD
:1034E000016D41F4006101652068016D21F4806186
:1034F00001652068016D2A6941EA022101657FE7C3
:1035000010B50446002C03D094F83D0010B107E03C
:10351000012010BD002084F83C00204600F018F87F
:10352000022084F83D00211D206802F05DFA012090
:103530003D34E0726070A070E07020716071A07125
:10354000E07120726072A0722070002010BD000037
:1035500008B500680B49884212D10B48016E41F44E
:1035600080310166006E00F4803000900022114628
:103570001820FEF777FEBDE808401820FEF764BE6D
:1035800008BD0000004001400010024000680549ED
:10359000884205D10448806C002801D103F02CBE7C
:1035A00070470000002C01400000002030B50446A8
:1035B00000290DD004290ED008290FD00C2910D0D5
:1035C000102911D094F84300012810D0012030BDFB
:1035D00094F83E00F8E794F83F00F5E794F84000CF
:1035E000F2E794F84100EFE794F84200ECE702209C
:1035F000F1B3042940D0082941D00C2942D0102928
:1036000043D084F843000122206802F04DFA234998
:103610002068234A234B884209D0904207D0984221
:1036200005D0214DA84202D0204DA84203D1456CBF
:1036300045F400454564206888420CD0B0F1804FC5
:1036400009D01B49884206D01A49884203D09042CB
:1036500001D098421CD18168174A114006291BD01D
:10366000B1F5803F18D0016841F00101016013E01D
:10367000FFE784F83E00C6E784F83F00C3E784F81C
:103680004000C0E784F84100BDE784F84200BAE793
:10369000016841F001010160002030BD002C0140B3
:1036A0000034014000400140004401400048014016
:1036B00000040040000800400700010070B5044607
:1036C000002500290DD004290ED008290FD00C297F
:1036D00010D0102911D094F84300012810D00120F7
:1036E00070BD94F83E00F8E794F83F00F5E794F8D1
:1036F0004000F2E794F84100EFE794F84200ECE76D
:10370000022099B1042914D0082915D00C2916D00B
:10371000102917D084F84300B9B104291BD0082917
:103720001FD00C2923D001253DB35FE084F83E0073
:10373000F2E784F83F00EFE784F84000ECE784F814
:103740004100E9E784F84200E6E72068C26842F0F9
:103750000202C260E8E72068C26842F00402C26068
:10376000E2E72068C26842F00802C260DCE7206835
:10377000C26842F01002C260D6E70122206802F05F
:1037800093F91B4920681B4A1B4B884209D0904281
:1037900007D0984205D0194EB04202D0184EB04220
:1037A00003D1466C46F400464664206888420CD03B
:1037B000B0F1804F09D01349884206D0124988429F
:1037C00003D0904201D098420CD181680F4A114039
:1037D00006290BD0B1F5803F08D0016841F0010106
:1037E000016003E0016841F001010160284670BDFD
:1037F000002C0140003401400040014000440140E1
:10380000004801400004004000080040070001009B
:1038100030B504460D4600222946206802F044F9DE
:10382000224941F211122068930088420BD02049AE
:10383000884208D01F49884205D01F49884202D0DB
:103840001E49884209D1016A114206D1016A194212
:1038500003D1416C21F4004141642068016A1142A6
:1038600006D1016A194203D1016821F0010101600A
:1038700001205DB1042D0CD0082D0DD00C2D0ED0E3
:10388000102D0FD084F84300002030BD84F83E0096
:10389000FAE784F83F00F7E784F84000F4E784F89B
:1038A0004100F1E784F84200EEE70000002C0140FF
:1038B0000034014000400140004401400048014004
:1038C0007047704790F88410012918D0012180F8C2
:1038D00084102421C0F8881001680A680B6823F05E
:1038E00001030B6022F00051002242660368196058
:1038F0002021C0F8881080F8842000207047022022
:1039000070477047704770B5044694F884000128EA
:103910001DD0012084F884002420C4F88800206889
:103920000568026822F0010202602068826822F0C5
:1039300060620A438260204602F0BEFA2068056099
:103940002020C4F88800002084F8840070BD022084
:1039500070BD70B5044694F8840001281DD0012084
:1039600084F884002420C4F8880020680568026870
:1039700022F0010202602068826822F060420A435D
:103980008260204602F098FA206805602020C4F882
:103990008800002084F8840070BD022070BD70474C
:1039A000704770472DE9F04104462368D8691968CB
:1039B0009A6840F60F0500EA0507002F0ED185062C
:1039C0000CD501F0200502F08056354306D0616F1A
:1039D00000297DD02046BDE8F04108470025022699
:1039E000002F76D0AE4FDFF8BCC2174001EA0C0CB6
:1039F00057EA0C0C6DD05FEAC07C0CD05FEAC15C6A
:103A000009D54FF0010CC3F820C0D4F8903043F032
:103A10000103C4F89030830709D5D30707D0236882
:103A20001E62D4F8903043F00403C4F8903043078A
:103A30000AD5D30708D0266804233362D4F890301F
:103A400043F00203C4F8903003070CD501F02003C3
:103A50003B4308D0266808233362D4F8903043F003
:103A60000803C4F8903003050BD54B0109D526682F
:103A70004FF400633362D4F8903043F02003C4F86D
:103A80009030D4F89030002B3CD0800609D501F05E
:103A9000200002F08051084303D0616F09B1204635
:103AA0008847D4F8900021688968490602D410F04C
:103AB000280F2DD0204602F035FB20688068400694
:103AC00022D52068083050E8001F21F0400101E0B5
:103AD00018E023E040E80012002AF2D1D4F8800078
:103AE00068B171498163D4F88000FDF755FE002864
:103AF00008D0D4F88000816BBDE8F041084720462B
:103B0000FFF74FFFBDE8F0812046FFF74AFFF9E7D6
:103B10002046FFF746FFC4F89050F3E7E76E012F09
:103B20007ED1C7067CD5CF067AD5102018622068D2
:103B300080684FF02003400648D5D4F8801008680C
:103B4000406880B20028DDD0B4F85C208242D9D928
:103B5000A4F85E000868006880062CD4206850E84D
:103B6000001F21F4807140E80012002AF6D120687D
:103B7000083050E8001F21F0010140E80012002A3F
:103B8000F5D12068083050E8001F21F0400140E8DE
:103B90000012002AF5D1C4F88C30E566206850E8A0
:103BA000001F21F0100140E80012002AF6D1D4F8DD
:103BB0008000FDF7BDFD2667B4F85C00B4F85E1028
:103BC000401A81B22046FFF79CFE9BE734F85C0F59
:103BD0006188401A81B260885C3C002892D000293C
:103BE00090D0206850E8002F22F4907240E800271F
:103BF000002FF6D12A4FFF432068083050E8002FED
:103C00003A4040E8002CBCF1000FF5D1C4F88C30EC
:103C1000E5666567206850E8002F22F0100200E09A
:103C200008E040E80023002BF4D126672046FFF788
:103C300068FE67E7C50209D5550207D54FF4801025
:103C400018622046BDE8F041FFF7AABE03060CD576
:103C500001F0800302F40002134306D0A16F002993
:103C6000B3D02046BDE8F0410847420606D54A06D3
:103C700004D52046BDE8F04102F07EBA020206D526
:103C80004A0004D52046BDE8F041FFF788BEC001D8
:103C90009BD5002999DA2046BDE8F041FFF732BEF6
:103CA00001000010200100047360000810B50446F4
:103CB000002C03D0D4F8880010B107E0012010BD1B
:103CC000002084F88400204600F028F82420C4F85E
:103CD00088002068016821F001010160A06A10B12C
:103CE000204602F00DF9204602F0D8FC012813D03E
:103CF0002068416821F4904141602068816821F08A
:103D00002A0181602068016841F0010101602046BC
:103D1000BDE8104002F058B9012010BD70B598B050
:103D20000646142113A8FCF776FC442102A8FCF7F0
:103D300072FC26493068884246D101200290002555
:103D4000039502A8FEF72EFB08B1FCF766FE20499A
:103D5000086E40F480400866086E00F480400190D0
:103D6000C86C40F00100C864C86C00F0010001900C
:103D70004FF4C060139002201490159516950720FB
:103D8000179013A94FF09040FDF764FE124C1148B4
:103D90002060192060601020A060E5608020206114
:103DA0006561A561E56125622046FDF799FD08B1D1
:103DB000FCF733FEF467A662002211462520FEF7C9
:103DC00051FA2520FEF740FA18B070BD00380140C6
:103DD0000010024008000240D43F002030B4D0F868
:103DE0008C30202B02D0022030BC7047A9B1A2B188
:103DF0000023C3660A4C0368A3420BD05B681B0216
:103E000008D5036853E8004F44F0806443E8004558
:103E1000002DF6D130BC02F0ABBD0120E4E700007C
:103E2000008000402DE9F0413549884265D1354C8C
:103E3000A1F519760027607906F20E33315C0A2964
:103E400002D03B2909D04EE0677103F003FA052246
:103E500019462B4800F058F847E0032843D3304474
:103E6000274D10F8031C9435442908D06FF02F0219
:103E70004D2909D06D2912D047291BD031E010F807
:103E8000010C303868702CE010F8020CA0F1300101
:103E900001EB810102EB41010844287121E010F897
:103EA000020CA0F1300101EB810102EB4101084459
:103EB000687116E010F8010C312802D0302808D0C3
:103EC0000FE003F0C7F9052219460D4800F01CF871
:103ED00007E0A81DFCF780FB82B2A91D084800F08E
:103EE00013F8677101E0401C607160793118BDE81A
:103EF000F04101220248FFF771BFBDE8F0810000E8
:103F0000E80200200000002070B50446D4F88800C4
:103F1000202801D0022070BD31B32AB344F8501FCD
:103F2000A280E280002121642120A063E06A503C4D
:103F3000E0B1164BC362E36F15481863E36F154891
:103F40005863E06F8163206813462830E56F0246AE
:103F50002846216DFDF724FD40B110208834A06073
:103F600020202060012070BD012070BD216840200C
:103F700008622068083050E8001F41F0800140E8E6
:103F80000012002AF5D1002070BD0000D7600008A3
:103F9000196100088760000838B500680B4988423D
:103FA00012D10B4C607801280ED10A4840780128C4
:103FB0000AD109A000680090064802226946943898
:103FC000FFF7A2FF0020607038BD000000380140FC
:103FD000000000207C030020FFFF00007047FEE788
:103FE0000148FDF7A7BE0000180100200148FDF7B9
:103FF000D5BE000018010020806A0022816B0029D4
:1040000000D08A63C16B01B18A6300F074BE30B521
:104010000022CB074FF0280506D0422290F84140FD
:1040200035EA040300D0F2228B0708D542F044029F
:1040300090F8414035EA040301D042F0B0020B048D
:1040400001D542F0B802102901D142F09002202996
:1040500001D142F02002402901D142F04002006823
:1040600001689143016030BD10B500221C4C436BC8
:10407000A34219D01B4CA34216D01B4CA34213D011
:104080000B0400D5B822CB0701D042F0F2028B0717
:1040900001D542F0F402102901D142F0900220290A
:1040A00019D142F0200216E00B0400D5B822CB074C
:1040B00001D042F0F2028B0701D542F0F402102940
:1040C00001D142F09002202901D142F06002402942
:1040D00001D142F04002006801681143016010BD47
:1040E000E9460008E54900081148000801688A69A6
:1040F000D243920701D400228A6200688169C943D1
:10410000C90703D0816941F00101816170472DE940
:10411000F041044694F841002822824320684FF081
:1041200000074FF0080104D0C16184F84070BDE879
:10413000F0818269C2F30046826902F47E02150CA6
:104140008268C2F30902C36803F0FE08E3684FF413
:10415000004C022B0BD061462046FFF758FF84F835
:1041600040702A4631462046FDF7BAFDDFE705F0EC
:104170000603062505EAD215AB420ED1A36C5B1CE3
:10418000A364A36C022BD2D1A764C16184F84070F0
:1041900031462046FDF7A4FDC9E761462046FFF7FA
:1041A00036FF84F84070424631462046FDF798FDC0
:1041B000BDE7000070B5044694F84100002584F87E
:1041C0004250454AE2626585626C0A43626428286F
:1041D00037D0292835D02A2833D048F20301204689
:1041E000FFF715FF2046FFF781FF94F84100602894
:1041F00013D0202184F8411020688269D2439206AE
:104200000BD48269D243D20605D41022C261606CFD
:1042100040F0040060642068C1616563206B2F4E2C
:10422000A16B19B1112816D0212814D0E16B19B156
:10423000122830D022282ED02046BDE8704000F051
:104240005ABD03212046FFF7E2FE282084F84100F2
:1042500023486063E2E720680168490403D50168E8
:1042600021F480410160A06BFDF7D1FA01280DD047
:10427000A06B866384F84050A06BFDF78DFA002890
:1042800029D0A06B816BBDE8704008472046BDE88F
:10429000704000F030BD20680168090403D5016852
:1042A00021F400410160E06BFDF7B1FA01280DD067
:1042B000E06B866384F84050E06BFDF76DFA0028F0
:1042C00009D0E06B816BBDE8704008472046BDE82F
:1042D000704000F010BD70BD0000FFFFF93F000806
:1042E000ED4A000870B504461648E06200252563D3
:1042F000202084F8410084F842506563C843400799
:1043000011D42068406A616A0870606A401C60626B
:10431000208D40B1401E2085608D401E6085606C00
:1043200040F00400606448F203012046FFF76FFE8E
:1043300021681020C86184F840502046FDF7B2FD86
:1043400070BD00000000FFFFF8B504460F4620686E
:104350002026C66194F84100212804D094F8410039
:10436000222807D00CE001212046FFF750FE112043
:10437000206305E002212046FFF749FE122020635A
:10438000206841682F4A11404160002565632E482E
:10439000E062F843C10606D422681021D161616C45
:1043A00041F00401616494F84110602905D140078F
:1043B00003D42068406AC0B200902046FFF796FE02
:1043C000606C94F84110602900D028B1616C2046DF
:1043D000BDE8F840FFF7EEBE94F84100212812D066
:1043E00094F8410022280DD184F84160256394F8A7
:1043F000420040281ED084F8425084F840502046A5
:10440000FDF760FDF8BD84F84160256394F8420033
:10441000402807D084F8425084F840502046FDF7E9
:1044200052FDF8BD84F8425084F840502046FDF714
:104430004CFDF8BD84F8425084F840502046FDF70A
:1044400043FDF8BD00E800FE0000FFFF70B5044624
:10445000002584F8425094F84110202021290ED0E4
:1044600084F8410012202063656302212046FFF793
:10447000CEFD84F840502046FDF724FD70BD84F841
:10448000410011202063656301212046FFF7BFFD35
:1044900084F840502046FDF716FD70BD2DE9F04729
:1044A00004460D462268D2F80090E66A94F841006E
:1044B0002027D7614FF00008212808D0292806D0EE
:1044C00022280CD02A280AD0282810D016E048F23A
:1044D00001012046FFF79BFD212020630EE048F2FA
:1044E00002012046FFF793FD2220206306E048F2F8
:1044F00003012046FFF78BFDC4F830802068416837
:1045000041F40041416020684168584A11404160CF
:104510002046FFF7EBFD6FEA090041040AD4216849
:104520000A6822F480420A60A16B79B1096849687F
:1045300061850BE0010409D421680A6822F4004275
:104540000A60E16B11B1096849686185E94349076F
:104550000FD425F004052168496A626A1170616A06
:10456000491C6162218D21B1491E2185618D491E41
:104570006185618D19B1616C41F004016164E943A9
:10458000DFF8EC90C90632D4C00630D4618D10201B
:1045900051B12168C861606C40F00400606416B3DA
:1045A000B6F1807F1FD022E094F84110282902D173
:1045B000B6F1007F04D094F84110292905D00FE00E
:1045C00029462046FFF78EFE11E04E4508D02168AF
:1045D000C8612046FFF78AFD204600F04BF806E050
:1045E0002168C86103E0616C2046FFF7E3FD84F8B1
:1045F0004280C4F83480606C68B1616C2046FFF77B
:10460000D9FD94F84100282816D129462046BDE856
:10461000F047FFF767BEE06A48450FD0204600F03C
:1046200029F8C4F82C9084F84170C4F8308084F8DC
:1046300040802046FDF736FCBDE8F08794F8410045
:10464000222809D084F84170C4F8308084F8408072
:104650002046FDF7B5FCEFE784F84170C4F83080E0
:1046600084F840802046FDF791FCE5E700E800FE75
:104670000000FFFF70B5044620680168002584F83B
:104680004250C9434A0404D4016821F480410160C6
:1046900005E0090403D4016821F40041016094F8A5
:1046A00041102820292911D094F841102A290CD131
:1046B00084F841002220206302212046FFF7A7FC56
:1046C00084F840502046FDF761FC70BD84F841003D
:1046D0002120206301212046FFF799FC84F84050F7
:1046E0002046FDF76DFC70BDF8B5044694F8400017
:1046F00001281AD0012084F84000CB43DE064FF099
:1047000000056FEA020012D4C20610D421681020FE
:10471000C861606C40F00400606420212046FFF70F
:10472000A3FC2046FFF7E2FC6BE00220F8BD374A0D
:104730001E0644D4460642D42068016821F0400198
:104740000160608D70B320684068C0F30901608D1E
:10475000FF2804D9FF2020854FF0807308E0608D8A
:104760002085E06A904201D0E36A01E04FF00073D7
:10477000009594F82820204600F084FA608D218D61
:10478000401A608594F84100222805D0206801680D
:1047900041F48041016034E02068016841F4004147
:1047A00001602EE020684068800103D42046FFF7B6
:1047B0004DFE26E040212046FFF7FCFC21E05E068E
:1047C00018D4460616D4608D20B140212046FFF74C
:1047D000F1FC16E020684168890112D4E16A914237
:1047E00004D1416841F4804141600AE02046FFF76E
:1047F0002DFE06E09A0604D4800602D42046FFF778
:10480000A3FD84F840500020F8BD00000000FFFF29
:104810002DE9F84F04465E4E94F8400001281AD066
:10482000012084F84000CD43EB064FF000076FEA0B
:10483000020013D4C20611D421681020C861606C34
:1048400040F00400606420212046FFF70DFC204664
:10485000FFF74CFC98E00220BDE8F88FAA0708D4C7
:10486000820706D4206D216888624FF0FF302065F2
:104870008AE02A064FF0FF084FF080794FF0007A67
:104880003DD442063BD401212046FFF7C0FB102156
:104890002046FFF7E9FB608D60B3608DFF280AD9E1
:1048A0004246A4F828800097E06C4B4681B220462F
:1048B00000F0E8F90AE0608D2085009794F8282040
:1048C000E06C534681B2204600F0DCF9608D218D0A
:1048D000401A608594F84100222805D020680168BC
:1048E00041F4804101604FE02068016841F40041DB
:1048F000016049E040212046FFF75CFC44E06A0685
:104900003BD4420639D401212046FFF780FB102119
:104910002046FFF7A9FB94F84100222800D11D4E44
:10492000608DFF280AD94246A4F828800096E06CE2
:104930004B4681B2204600F0A5F90AE0608D208543
:10494000009694F82820E06C534681B2204600F08F
:1049500099F9608D218D401A608594F841002228D4
:1049600005D02068016841F4804101600CE02068B6
:10497000016841F40041016006E0AA0604D4800603
:1049800002D42046FFF7E0FC84F84070002063E783
:10499000002000800024008010B5044600F038F9A3
:1049A000EA2000F011FA01F062FAB8B1204600F0F6
:1049B0000BFA002000F0D6FD00F02AF9EB2000F001
:1049C00003FA01F054FA58B100F0C1F9044600208E
:1049D00000F0C8FD00F039F9204610BD002010BDE0
:1049E000002010BD2DE9F0410446E36A002594F84B
:1049F000400001280DD0012084F84000CE43B706C6
:104A00006FEA020008D4820606D42046FFF746FD6E
:104A100067E00220BDE8F081F2065BD4C20659D4FB
:104A200042044FF0100601D5020450D4E26B2AB1C3
:104A3000070403D41268526802B90125A26B2AB197
:104A4000400403D41068406800B90125012D0CD042
:104A50002068C661606C40F00400606494F8410016
:104A600013B3B3F1807F1FD03BE094F841002828B6
:104A700002D1B3F1007F04D094F84100292804D07A
:104A80000FE02046FFF72EFC2BE013F5803F08D007
:104A90002068C6612046FFF729FB2046FFF7EAFDA4
:104AA0001FE02068C6611CE0212806D0292804D018
:104AB000222805D02A2803D004E02120206301E029
:104AC00022202063616C2046FFF774FB09E0206818
:104AD000C66106E0320704D4000702D42046FFF77F
:104AE00016FB002084F8400094E700002DE9F04117
:104AF0000446E06A94F84030012B0DD0012384F87D
:104B00004030CB439D066FEA020208D4950606D4D6
:104B10002046FFF7C3FC75E00220BDE8F0813B4D65
:104B2000DF064FF0807630D4D7062ED4638D102266
:104B30006BB12168CA61616C41F00401616408B124
:104B4000B0425FD1616C2046FFF734FB5AE094F825
:104B50004130282B02D1B0F1007F04D094F84110ED
:104B6000292904D00EE02046FFF7BCFB4AE0A8420A
:104B700008D02068C2612046FFF7B8FA2046FFF748
:104B800079FD3FE02068C2613CE05F0718D4570719
:104B900016D4618D61B12168496A626A1170616AD7
:104BA000491C6162218D491E2185618D491E6185E7
:104BB000618D01BBA84225D02046FFF75BFD21E0B7
:104BC0001D0705D4150703D42046FFF7A0FA19E006
:104BD000990717D4910715D4618D69B1606A21686E
:104BE00000788862606A401C6062608D401E60854B
:104BF000208D401E208505E0B04200D010B920462F
:104C0000FFF738FD002084F8400086E70000FFFF32
:104C100010B500F06FFE4FF0904401224021204675
:104C2000FCF7F7FF0120FCF703FF0122802120465B
:104C3000FCF7EFFF02F048F9002280212046FCF744
:104C4000E8FFBDE8104002F03FB910B500F052FE99
:104C50004FF09044002280212046FCF7DAFF01202B
:104C6000FCF7E6FE012240212046FCF7D2FF02F0CD
:104C70002BF9012280212046FCF7CBFFBDE8104034
:104C800002F022B910B5029CC1F3090141EA0241C8
:104C90001943214321F00041006843684FF48062CA
:104CA00002EA5452024C224393430B43436010BD2B
:104CB000FF63FF0370B505460C46FFF7A9FFEA2026
:104CC00000F082F801F0D3F878B1284600F07CF8C3
:104CD00001F0CDF858B1204600F076F801F0C7F8A1
:104CE00038B1FFF7B2FF012070BD002070BD002079
:104CF00070BD002070BD10B590F841200021602AE1
:104D000005D0016380F84010FDF764F810BD202243
:104D100080F84120016380F84010FCF7DFFF10BDF0
:104D200010B500F0E7FD4FF09044012280212046AD
:104D3000FCF76FFF0120FCF77BFE0122402120469B
:104D4000FCF767FFBDE810400120FCF771BE70B5AD
:104D50004FF09046002240213046FCF75AFF0120D8
:104D6000FCF766FE012280213046FCF752FF00F07E
:104D7000A9FD0120FCF75CFE002501224021304600
:104D8000FCF747FF0120FCF753FE80213046FCF77B
:104D900039FF10B144F0010401E004F0FE040120E9
:104DA000FCF746FE002240213046FCF732FF01208E
:104DB000FCF73EFE072D01D26006040E6D1CEDB21D
:104DC000082DDAD3204670BD70B5054600F092FD7F
:104DD00000244FF09046002240213046FCF719FF96
:104DE0000120FCF725FE280608D501228021304647
:104DF000FCF70FFF0120FCF71BFE07E000228021DB
:104E00003046FCF706FF0120FCF712FE012240218C
:104E10003046FCF7FEFE0120FCF70AFE6806050E90
:104E2000641CE4B2082CD6D3002240213046FCF7A3
:104E3000F0FE0120FCF7FCFD012280213046FCF74A
:104E4000E8FEBDE870400120FCF7F2BD70B501221C
:104E5000114D540321462846FCF7DBFE0120FBF7E9
:104E6000D3FD0122960331462846FCF7D2FE0120ED
:104E7000FBF7CAFD002231462846FCF7CAFE012096
:104E8000FBF7C2FD002221462846FCF7C2FEBDE822
:104E900070400120FBF7B8BD0004004870B50E4C0F
:104EA000012251032046FCF7B4FE0120FBF7ACFDC4
:104EB0004FF48045002229462046FCF7AAFE012037
:104EC000FBF7A2FD012229462046FCF7A2FEBDE821
:104ED00070400120FBF798BD0004004870B5012226
:104EE000094D540321462846FCF793FE0120FBF7A9
:104EF0008BFD002221462846FCF78BFEBDE8704062
:104F00000120FBF781BD00000004004800EB810098
:104F1000006E00F0F84070478068C0F3C000704732
:104F20008068C0F3000070478068C0F3800070475D
:104F3000C06810F4406F01D0002070470120704716
:104F400010B501F0007300EBD3504369C1F3045175
:104F500007248C40A3438A401343436110BD00EBF8
:104F60008100016E21F0004111430166704700008D
:104F700030B589B0202101A8FBF74DFB1B481A4929
:104F800001604FF44031416000248460C4600461DA
:104F9000446104258561047744770121016280F82A
:104FA00024404FF49461C1622902016380F83840C3
:104FB000C46380F84040FCF7A7F808B1FBF72DFD6B
:104FC0000B4801900620029003947F2004900595E1
:104FD000069401A90548FBF727FD002801D0FBF73F
:104FE0001CFD09B030BD00000001005098000020F9
:104FF0000200300400B58DB0302101A8FBF70BFB97
:105000001149104808600846FCF74EFB08B1FBF751
:1050100004FD0220019000208DF808008DF80900A1
:1050200003900490059006900121079108900022BA
:1050300001A90548FCF744FA002801D0FBF7EDFC74
:105040000DB000BD000800500401002008B5114853
:10505000816C41F004018164816C01F004010091D4
:10506000816C41F001018164806C00F001000090CE
:10507000002211460B20FDF7F5F80B20FDF7E4F8B0
:10508000002211460C20FDF7EDF8BDE808400C2089
:10509000FDF7DAB8001002402DE9F04186B0142186
:1050A00001A8FBF7B8FA1F48C16C41F00101C164C7
:1050B000C16C01F001010091C16C41F00201C164B9
:1050C000C06C00F0020000904FF090480022C02118
:1050D0004046FCF79EFD144F4FF4D0460022314667
:1050E0003846FCF796FD202001900024029403949A
:1050F00001A94046FCF7AEFCC020019001250295B5
:105100000394049401A94046FCF7A4FC019602957F
:105110000394049401A93846FCF79CFC06B0BDE852
:10512000F0810000001002400004004810B5134850
:105130001149016012494160062181600121C1606D
:105140000021016141618161C1610162FCF744FE9E
:1051500008B1FBF762FC00210848FCF767FD08B1C5
:10516000FBF75BFC00210548FCF78DFD002801D012
:10517000FBF753FC10BD0000007800401801002030
:10518000FFEDC02010B598B0002415941694179424
:105190001C210EA8FBF73FFA342101A8FBF73BFACC
:1051A00020481F490160446084600721C160046198
:1051B00044618461FEF7A4F908B1FBF72EFC159455
:1051C000179415A91748FDF713FE08B1FBF725FC46
:1051D00060200E9006200F90109411941294139456
:1051E000149400220EA90F48FEF7EFF808B1FBF760
:1051F00014FC019402940394049405944FF4005019
:10520000069007940D9401A90648FDF79FFD08B18B
:10521000FBF703FC0348FEF74FF818B010BD000081
:10522000004001409C02002030B59BB00024179440
:10523000189419941A941494159416941C210DA87A
:10524000FBF7E9F934216846FBF7E5F931483049C5
:1052500001604A21416084602F4D40F27D2229780F
:1052600011FB02F1621E02EB8101C1600461446125
:105270008461FDF706FE08B1FBF7CFFB4FF48050C9
:10528000179017A92348FDF7BBFE08B1FBF7C5FB34
:105290002048FEF735F908B1FBF7BFFB14941594CD
:1052A000169414A91B48FDF7A3FD08B1FBF7B5FB45
:1052B00060200D902878801C40000E9002200F90F6
:1052C00010941194129413940C220DA91148FEF716
:1052D0007CF808B1FBF7A1FB0094019402940394BD
:1052E00004944FF40050059006940794089400032A
:1052F00009900A940B940C9469460648FDF726FD24
:1053000008B1FBF78AFB0348FDF7D6FF1BB030BDA1
:10531000002C01406C0100200000002030B58FB04F
:1053200000240B940C940D940E94089409940A9400
:105330001C2101A8FBF76FF91F484FF08041016065
:105340004A21416084601D4D2978491EC160046175
:105350008461FDF796FD08B1FBF75FFB4FF48050C9
:105360000B900BA91448FDF74BFE08B1FBF755FB5A
:105370001148FEF7C5F808B1FBF74FFB08940A94F3
:1053800008A90D48FDF734FD08B1FBF746FB602086
:10539000019028784008029003940594042201A902
:1053A0000548FEF712F808B1FBF737FB0248FDF796
:1053B00083FF0FB030BD0000B801002000000020C6
:1053C00030B58FB000240B940C940D940E94089477
:1053D00009940A941C2101A8FBF71DF9214D2048CE
:1053E00028606C60AC604A20E8602C61AC612846A3
:1053F000FDF747FD08B1FBF710FB4FF480500B9011
:105400000BA91848FDF7FCFD08B1FBF706FB154892
:10541000FEF776F808B1FBF700FB08940A9408A998
:105420001048FDF7E5FC08B1FBF7F7FA60200190A2
:1054300025200290039404200590082201A9094820
:10544000FDF7C3FF08B1FBF7E8FA2868C16921F04E
:105450000801C1610348FDF72FFF0FB030BD000008
:10546000000400400402002010B58EB000240A940D
:105470000B940C940D940794089409941C2168468D
:10548000FBF7C9F81D481C490160446084604A214B
:10549000C16004618461FDF7F4FC08B1FBF7BDFA5B
:1054A0004FF480500A900AA91448FDF7A9FD08B1ED
:1054B000FBF7B3FA1148FEF723F808B1FBF7ADFA92
:1054C0000794099407A90D48FDF792FC08B1FBF772
:1054D000A4FA6020009025200190029404940C22EC
:1054E00069460648FDF771FF08B1FBF796FA0348D5
:1054F000FDF7E2FE0EB010BD000800405002002093
:1055000010B51648144901601549416000218160B9
:10551000C16001610C2242618161C161016241622D
:105520008162FEF7C3FB08B1FBF777FA00210B4855
:10553000FEF70FFA08B1FBF770FA00210748FEF7F3
:10554000E2F908B1FBF769FA0448FEF7BBF9002855
:1055500001D0FBF762FA10BD00380140E8020020DC
:1055600020A1070070B5044600F0C4F94FF0904543
:10557000002240212846FCF74CFB0120FCF758FA9A
:105580002CB1002280212846FCF743FB04E00122D5
:1055900080212846FCF73DFB0120FCF749FA012257
:1055A00040212846FCF735FB01F08EFC002240210B
:1055B0002846FCF72EFB0120FCF73AFA0122802155
:1055C0002846FCF726FBBDE870400120FCF730BA06
:1055D000FEE7FEE770B50025002105F1B00000F000
:1055E00037F90021084600F033F90021102000F0BF
:1055F0002FF900240121002000F02AF9641CE4B2F4
:10560000802CF7D36D1CEDB2082DE5D370BD10B51D
:105610000021AE2000F01CF90021402000F018F914
:105620000021B02000F014F90021C82000F010F98A
:105630000021812000F00CF90021FF2000F008F982
:105640000021A12000F004F90021A62000F000F9BB
:105650000021A82000F0FCF800211F2000F0F8F83D
:105660000021D32000F0F4F80021084600F0F0F803
:105670000021D52000F0ECF80021F02000F0E8F83F
:105680000021D92000F0E4F80021222000F0E0F809
:105690000021DA2000F0DCF80021022000F0D8F828
:1056A0000021DB2000F0D4F80021492000F0D0F8E0
:1056B00000218D2000F0CCF80021142000F0C8F863
:1056C0000021AF2000F0C4F8BDE81040FFF782BF12
:1056D00010B5044608460021B03000F0B9F810209B
:1056E00040EA1410002100F0B3F804F00F00BDE808
:1056F0001040002100F0ACB82DE9F05F0746DDF85E
:1057000028A00E4699460024203AD5B27F2F02D910
:105710000027B61CF6B2DFF8F080BAF1000F15D101
:10572000B9F1100F2CD031463846FFF7D1FF05EB09
:105730004500A8F50A7101EB400B01211BF804009C
:1057400000F08EF8641CE4B2062CF6D3BAF1000F18
:1057500014D0B9F1100F34D031463846FFF7B8FFF6
:1057600000242A4905EB450001EB40050121285D95
:1057700000F06EF8641CE4B2062CF7D3BDE8F09F8D
:1057800031463846FFF7A4FF04EB0510012118F855
:10579000000000F065F8641CE4B2082CF4D3701C1F
:1057A000C1B23846FFF794FF002404EB05104044D3
:1057B0000121007A00F054F8641CE4B2082CF4D300
:1057C000C4E731463846FFF783FF002404EB051099
:1057D000012118F8000000F03BF8641CE4B2082C2A
:1057E000F4D3761CF1B23846FFF772FF002404EBC5
:1057F000051040440121007A00F02AF8641CE4B24C
:10580000082CF4D3BAE700002E75000806730008D0
:105810002DE9F8430446DDF820900E4617469846D9
:10582000002510E0434631462046CDF80090FFF7B2
:1058300063FF04EB5800C4B2782C02D90024B61CD4
:10584000F6B26D1CEDB27A5D002AEBD1BDE8F883AB
:10585000002902D0C0B201F0C6B9C0B201F0ACB9A3
:10586000C043002902D0C0B201F0BDB9C0B201F0FE
:10587000A3B970471049C86800F00302C868C0F3B4
:105880000310401C032A0ED00C4AB2FBF0F0CA6889
:10589000C2F306225043C968C1F34161491C490063
:1058A000B0FBF1F07047064AB2FBF0F0CA68C2F3F1
:1058B00006225043EFE70000001002400024F400ED
:1058C00000127A0010B586B0142101A8FAF7A3FEE1
:1058D00080200190002402940120039001A94FF040
:1058E0009040FCF7B7F80248846006B010BD000095
:1058F0005000002010B586B0142101A8FAF78BFEE5
:105900008020019011200290012403940020049033
:1059100001A94FF09040FCF79DF80248846006B062
:1059200010BD0000500000207047FCF737BC00B5E8
:1059300093B0382105A8FAF76EFE14216846FAF7ED
:105940006AFE4FF40070FCF7BFFC02200590C10115
:105950000891402109910C900D9004210E914B214A
:105960000F9110901190129005A8FCF7AFFF08B1AD
:10597000FBF753F80F2000900320019000200290C5
:105980000390049004216846FCF758FE002801D0DB
:10599000FBF743F813B000BD0248016841F4700101
:1059A0000160704788ED00E010B50448FDF7AFFBDB
:1059B000BDE810400248FDF7AABB00006C010020C2
:1059C0009C0200200148FDF7A2BB00006C010020F2
:1059D0000148FDF79CBB00006C0100200148FDF769
:1059E00096BB00006C0100202DE9F0470268274DAE
:1059F000DFF89C80DFF89C90274B4FF0804AA8424C
:105A000007D0504505D0404503D0484501D09842C5
:105A100003D122F070044A682243204E204FDFF861
:105A200084C0A8420DD050450BD0404509D0484510
:105A300007D0984205D0B04203D0B84201D06045AB
:105A400003D122F44074CA6822434C6922F08002D8
:105A5000224302608A68C2620A688262A84207D052
:105A6000984205D0B04203D0B84201D0604501D180
:105A700009690163012141610169C90703D0016915
:105A800021F001010161BDE8F0870000002C014018
:105A90000004004000080040003401400040014084
:105AA000004401400048014010B501F01F010123EE
:105AB0008B40046A9C430462036A8A401343036276
:105AC00010BD10B5846824F47F4442EA03220A43DF
:105AD0002243826010BD00008268034B1A400A43D3
